{
  "contractName": "Tpsc",
  "abi": [
    {
      "inputs": [],
      "payable": true,
      "stateMutability": "payable",
      "type": "constructor"
    },
    {
      "anonymous": false,
      "inputs": [
        {
          "indexed": false,
          "internalType": "string",
          "name": "_taskname",
          "type": "string"
        },
        {
          "indexed": false,
          "internalType": "string",
          "name": "_taskInfo",
          "type": "string"
        },
        {
          "indexed": false,
          "internalType": "string",
          "name": "_taskRequire",
          "type": "string"
        },
        {
          "indexed": false,
          "internalType": "string",
          "name": "_taskDesc",
          "type": "string"
        }
      ],
      "name": "NewTask",
      "type": "event"
    },
    {
      "constant": true,
      "inputs": [],
      "name": "token",
      "outputs": [
        {
          "internalType": "address",
          "name": "",
          "type": "address"
        }
      ],
      "payable": false,
      "stateMutability": "view",
      "type": "function"
    },
    {
      "constant": false,
      "inputs": [
        {
          "internalType": "string",
          "name": "_taskname",
          "type": "string"
        },
        {
          "internalType": "string",
          "name": "_taskInfo",
          "type": "string"
        },
        {
          "internalType": "string",
          "name": "_taskRequire",
          "type": "string"
        },
        {
          "internalType": "string",
          "name": "_taskDesc",
          "type": "string"
        }
      ],
      "name": "addTask",
      "outputs": [],
      "payable": false,
      "stateMutability": "nonpayable",
      "type": "function"
    },
    {
      "constant": true,
      "inputs": [],
      "name": "getTaskInfo",
      "outputs": [
        {
          "internalType": "string",
          "name": "_taskname",
          "type": "string"
        },
        {
          "internalType": "string",
          "name": "_taskInfo",
          "type": "string"
        },
        {
          "internalType": "string",
          "name": "_taskRequire",
          "type": "string"
        },
        {
          "internalType": "string",
          "name": "_taskDesc",
          "type": "string"
        }
      ],
      "payable": false,
      "stateMutability": "view",
      "type": "function"
    }
  ],
  "bytecode": "0x608060405233600160006101000a81548173ffffffffffffffffffffffffffffffffffffffff021916908373ffffffffffffffffffffffffffffffffffffffff160217905550610c1e806100546000396000f3fe608060405234801561001057600080fd5b50600436106100415760003560e01c8063af4ba2e014610046578063bac64a2e146102c6578063fc0c546a1461048d575b600080fd5b6102c46004803603608081101561005c57600080fd5b810190808035906020019064010000000081111561007957600080fd5b82018360208201111561008b57600080fd5b803590602001918460018302840111640100000000831117156100ad57600080fd5b91908080601f016020809104026020016040519081016040528093929190818152602001838380828437600081840152601f19601f8201169050808301925050505050505091929192908035906020019064010000000081111561011057600080fd5b82018360208201111561012257600080fd5b8035906020019184600183028401116401000000008311171561014457600080fd5b91908080601f016020809104026020016040519081016040528093929190818152602001838380828437600081840152601f19601f820116905080830192505050505050509192919290803590602001906401000000008111156101a757600080fd5b8201836020820111156101b957600080fd5b803590602001918460018302840111640100000000831117156101db57600080fd5b91908080601f016020809104026020016040519081016040528093929190818152602001838380828437600081840152601f19601f8201169050808301925050505050505091929192908035906020019064010000000081111561023e57600080fd5b82018360208201111561025057600080fd5b8035906020019184600183028401116401000000008311171561027257600080fd5b91908080601f016020809104026020016040519081016040528093929190818152602001838380828437600081840152601f19601f8201169050808301925050505050505091929192905050506104d7565b005b6102ce610796565b6040518080602001806020018060200180602001858103855289818151815260200191508051906020019080838360005b8381101561031a5780820151818401526020810190506102ff565b50505050905090810190601f1680156103475780820380516001836020036101000a031916815260200191505b50858103845288818151815260200191508051906020019080838360005b83811015610380578082015181840152602081019050610365565b50505050905090810190601f1680156103ad5780820380516001836020036101000a031916815260200191505b50858103835287818151815260200191508051906020019080838360005b838110156103e65780820151818401526020810190506103cb565b50505050905090810190601f1680156104135780820380516001836020036101000a031916815260200191505b50858103825286818151815260200191508051906020019080838360005b8381101561044c578082015181840152602081019050610431565b50505050905090810190601f1680156104795780820380516001836020036101000a031916815260200191505b509850505050505050505060405180910390f35b610495610b1e565b604051808273ffffffffffffffffffffffffffffffffffffffff1673ffffffffffffffffffffffffffffffffffffffff16815260200191505060405180910390f35b6040518060800160405280858152602001848152602001838152602001828152506000803373ffffffffffffffffffffffffffffffffffffffff1673ffffffffffffffffffffffffffffffffffffffff1681526020019081526020016000206000820151816000019080519060200190610552929190610b44565b50602082015181600101908051906020019061056f929190610b44565b50604082015181600201908051906020019061058c929190610b44565b5060608201518160030190805190602001906105a9929190610b44565b509050507ffdc2bc89947c32480679a96e6ba943fb8559b80d7bae3c207ea99c4480ddc199848484846040518080602001806020018060200180602001858103855289818151815260200191508051906020019080838360005b8381101561061e578082015181840152602081019050610603565b50505050905090810190601f16801561064b5780820380516001836020036101000a031916815260200191505b50858103845288818151815260200191508051906020019080838360005b83811015610684578082015181840152602081019050610669565b50505050905090810190601f1680156106b15780820380516001836020036101000a031916815260200191505b50858103835287818151815260200191508051906020019080838360005b838110156106ea5780820151818401526020810190506106cf565b50505050905090810190601f1680156107175780820380516001836020036101000a031916815260200191505b50858103825286818151815260200191508051906020019080838360005b83811015610750578082015181840152602081019050610735565b50505050905090810190601f16801561077d5780820380516001836020036101000a031916815260200191505b509850505050505050505060405180910390a150505050565b6060806060806000803373ffffffffffffffffffffffffffffffffffffffff1673ffffffffffffffffffffffffffffffffffffffff1681526020019081526020016000206000016000803373ffffffffffffffffffffffffffffffffffffffff1673ffffffffffffffffffffffffffffffffffffffff1681526020019081526020016000206001016000803373ffffffffffffffffffffffffffffffffffffffff1673ffffffffffffffffffffffffffffffffffffffff1681526020019081526020016000206002016000803373ffffffffffffffffffffffffffffffffffffffff1673ffffffffffffffffffffffffffffffffffffffff168152602001908152602001600020600301838054600181600116156101000203166002900480601f0160208091040260200160405190810160405280929190818152602001828054600181600116156101000203166002900480156109355780601f1061090a57610100808354040283529160200191610935565b820191906000526020600020905b81548152906001019060200180831161091857829003601f168201915b50505050509350828054600181600116156101000203166002900480601f0160208091040260200160405190810160405280929190818152602001828054600181600116156101000203166002900480156109d15780601f106109a6576101008083540402835291602001916109d1565b820191906000526020600020905b8154815290600101906020018083116109b457829003601f168201915b50505050509250818054600181600116156101000203166002900480601f016020809104026020016040519081016040528092919081815260200182805460018160011615610100020316600290048015610a6d5780601f10610a4257610100808354040283529160200191610a6d565b820191906000526020600020905b815481529060010190602001808311610a5057829003601f168201915b50505050509150808054600181600116156101000203166002900480601f016020809104026020016040519081016040528092919081815260200182805460018160011615610100020316600290048015610b095780601f10610ade57610100808354040283529160200191610b09565b820191906000526020600020905b815481529060010190602001808311610aec57829003601f168201915b50505050509050935093509350935090919293565b600160009054906101000a900473ffffffffffffffffffffffffffffffffffffffff1681565b828054600181600116156101000203166002900490600052602060002090601f016020900481019282601f10610b8557805160ff1916838001178555610bb3565b82800160010185558215610bb3579182015b82811115610bb2578251825591602001919060010190610b97565b5b509050610bc09190610bc4565b5090565b610be691905b80821115610be2576000816000905550600101610bca565b5090565b9056fea265627a7a72315820d3bbb628eee2a4841de5206783aa6c7d22dd8311f1fb5d41aa000d7ffe29f6e064736f6c63430005100032",
  "source": "pragma solidity ^0.5.16;\nimport \"./SafeMath.sol\";\n\ncontract Tpsc{\n  using SafeMath for uint256;\n\n  event NewTask(string _taskname, string _taskInfo, string _taskRequire, string _taskDesc);\n\n  struct Task {\n    string taskname;//任务名称\n    string taskInfo;//任务信息\n    string taskRequire;//人员要求\n    string taskDesc;//任务描述\n  }\n\n  mapping(address => Task) internal addressToTask;\n\n  address public token;\n\n  constructor() public payable {\n    token = msg.sender;\n  }\n\n  // modifier onlyMemberOf(address _from) {\n  //   require(addressToTask[_from].isExist);\n  //   _;\n  // }\n\n  // 注册\n  function addTask(string memory  _taskname, string memory  _taskInfo, string memory  _taskRequire, string memory  _taskDesc) public {\n    //require(!isMemberOf());\n    addressToTask[msg.sender] = Task(_taskname, _taskInfo, _taskRequire, _taskDesc);\n    emit NewTask(_taskname, _taskInfo, _taskRequire, _taskDesc);\n  }\n\n  // 判断是否注册\n  // function isMemberOf() public view returns (bool) {\n  //  return addressToTask[msg.sender].isExist;\n  //}\n\n  // 获取任务信息\n  function getTaskInfo() public view returns (string memory  _taskname, string memory  _taskInfo, string memory  _taskRequire, string memory  _taskDesc) {\n    return (addressToTask[msg.sender].taskname, addressToTask[msg.sender].taskInfo, addressToTask[msg.sender].taskRequire, addressToTask[msg.sender].taskDesc);\n  }\n\n  // function getTotalBalance() public view returns (uint256) {\n  //   return address(this).balance;\n  // }\n\n  // function withdraw(uint256 amount) public returns (uint256) {\n  //   require(address(this).balance >= amount);\n  //   addressToTask[msg.sender].balance = addressToTask[msg.sender].balance.sub(amount);\n  //   msg.sender.transfer(amount);\n  //   return addressToTask[msg.sender].balance;\n  // }\n}",
  "sourcePath": "/Users/harry/CSChain/contracts/Tpsc.sol",
  "compiler": {
    "name": "solc",
    "version": "0.5.16+commit.9c3226ce.Emscripten.clang"
  },
  "schemaVersion": "3.4.5",
  "updatedAt": "2022-03-03T04:25:13.127Z",
  "networkType": "ethereum",
  "devdoc": {
    "methods": {}
  },
  "userdoc": {
    "methods": {}
  }
}